{
  "_format": "hh-sol-artifact-1",
  "contractName": "Staking",
  "sourceName": "contracts/Staking.sol",
  "abi": [
    {
      "inputs": [],
      "stateMutability": "nonpayable",
      "type": "constructor"
    },
    {
      "inputs": [],
      "name": "MultiChainRouter",
      "outputs": [
        {
          "internalType": "address",
          "name": "",
          "type": "address"
        }
      ],
      "stateMutability": "view",
      "type": "function"
    },
    {
      "inputs": [],
      "name": "SUSDT",
      "outputs": [
        {
          "internalType": "address",
          "name": "",
          "type": "address"
        }
      ],
      "stateMutability": "view",
      "type": "function"
    },
    {
      "inputs": [],
      "name": "USDC",
      "outputs": [
        {
          "internalType": "address",
          "name": "",
          "type": "address"
        }
      ],
      "stateMutability": "view",
      "type": "function"
    },
    {
      "inputs": [],
      "name": "USDT",
      "outputs": [
        {
          "internalType": "address",
          "name": "",
          "type": "address"
        }
      ],
      "stateMutability": "view",
      "type": "function"
    },
    {
      "inputs": [],
      "name": "addressesSet",
      "outputs": [
        {
          "internalType": "bool",
          "name": "",
          "type": "bool"
        }
      ],
      "stateMutability": "view",
      "type": "function"
    },
    {
      "inputs": [],
      "name": "approvals",
      "outputs": [],
      "stateMutability": "nonpayable",
      "type": "function"
    },
    {
      "inputs": [],
      "name": "claimSTG",
      "outputs": [],
      "stateMutability": "nonpayable",
      "type": "function"
    },
    {
      "inputs": [
        {
          "internalType": "uint256",
          "name": "_amount",
          "type": "uint256"
        }
      ],
      "name": "depositToMultiChain",
      "outputs": [],
      "stateMutability": "nonpayable",
      "type": "function"
    },
    {
      "inputs": [
        {
          "internalType": "uint256",
          "name": "_amount",
          "type": "uint256"
        }
      ],
      "name": "depositToStargate",
      "outputs": [],
      "stateMutability": "nonpayable",
      "type": "function"
    },
    {
      "inputs": [
        {
          "internalType": "address",
          "name": "tokenAddr",
          "type": "address"
        }
      ],
      "name": "getAllTokens",
      "outputs": [],
      "stateMutability": "nonpayable",
      "type": "function"
    },
    {
      "inputs": [],
      "name": "stargateLPStaking",
      "outputs": [
        {
          "internalType": "address",
          "name": "",
          "type": "address"
        }
      ],
      "stateMutability": "view",
      "type": "function"
    },
    {
      "inputs": [],
      "name": "stargateRouter",
      "outputs": [
        {
          "internalType": "address",
          "name": "",
          "type": "address"
        }
      ],
      "stateMutability": "view",
      "type": "function"
    },
    {
      "inputs": [
        {
          "internalType": "uint256",
          "name": "_amount",
          "type": "uint256"
        }
      ],
      "name": "withrawFromMultiChain",
      "outputs": [],
      "stateMutability": "nonpayable",
      "type": "function"
    },
    {
      "inputs": [
        {
          "internalType": "uint256",
          "name": "_amount",
          "type": "uint256"
        }
      ],
      "name": "withrawFromStargate",
      "outputs": [],
      "stateMutability": "nonpayable",
      "type": "function"
    }
  ],
  "bytecode": "0x61014060405260008060006101000a81548160ff021916908315150217905550734a364f8c717caad9a442737eb7b8a55cc6cf18d873ffffffffffffffffffffffffffffffffffffffff1660809073ffffffffffffffffffffffffffffffffffffffff16815250738965349fb649a33a30cbfda057d8ec2c48abe2a273ffffffffffffffffffffffffffffffffffffffff1660a09073ffffffffffffffffffffffffffffffffffffffff16815250733052a0f6ab15b4ae1df39962d5ddefaca86dab4773ffffffffffffffffffffffffffffffffffffffff1660c09073ffffffffffffffffffffffffffffffffffffffff168152507355d398326f99059ff775485246999027b319795573ffffffffffffffffffffffffffffffffffffffff1660e09073ffffffffffffffffffffffffffffffffffffffff16815250738ac76a51cc950d9822d68b83fe1ad97b32cd580d73ffffffffffffffffffffffffffffffffffffffff166101009073ffffffffffffffffffffffffffffffffffffffff16815250739aa83081aa06af7208dcc7a4cb72c94d057d2cda73ffffffffffffffffffffffffffffffffffffffff166101209073ffffffffffffffffffffffffffffffffffffffff168152507fffffffffffffffffffffffffffffffffffffffffffffffffffffffffffffffff6001553480156101fb57600080fd5b5060805160a05160c05160e05161010051610120516112b36102de600039600081816105db015281816107a50152818161086601528181610a9e0152610d250152600081816103f8015281816105b70152610927015260008181610623015281816106e4015281816109ea0152610bf201526000818161052701528181610720015281816108a201528181610a0e01528181610dc10152610e6401526000818161036a01528181610499015281816109630152610bce0152600081816105ff0152818161065f015281816107e101528181610b3a0152610c9301526112b36000f3fe608060405234801561001057600080fd5b50600436106100ea5760003560e01c8063b05dba961161008c578063e9c2aee911610066578063e9c2aee9146101eb578063eeb2e34d14610209578063fc08a27814610225578063ff49494714610243576100ea565b8063b05dba96146101a7578063c54e44eb146101b1578063e51e1145146101cf576100ea565b8063257bc14c116100c8578063257bc14c1461014357806389a302711461014d578063a1f4272b1461016b578063a9e56f3c14610189576100ea565b8063178b6de6146100ef5780631899fa571461010b57806319f727bf14610127575b600080fd5b61010960048036038101906101049190610ee9565b610261565b005b61012560048036038101906101209190610f4c565b610368565b005b610141600480360381019061013c9190610f4c565b6103f6565b005b61014b610525565b005b6101556105b5565b6040516101629190610f88565b60405180910390f35b6101736105d9565b6040516101809190610f88565b60405180910390f35b6101916105fd565b60405161019e9190610f88565b60405180910390f35b6101af610621565b005b6101b96109e8565b6040516101c69190610f88565b60405180910390f35b6101e960048036038101906101e49190610f4c565b610a0c565b005b6101f3610bcc565b6040516102009190610f88565b60405180910390f35b610223600480360381019061021e9190610f4c565b610bf0565b005b61022d610e51565b60405161023a9190610fbe565b60405180910390f35b61024b610e62565b6040516102589190610f88565b60405180910390f35b600081905060008173ffffffffffffffffffffffffffffffffffffffff166370a08231306040518263ffffffff1660e01b81526004016102a19190610f88565b602060405180830381865afa1580156102be573d6000803e3d6000fd5b505050506040513d601f19601f820116820180604052508101906102e29190610fee565b90508173ffffffffffffffffffffffffffffffffffffffff1663a9059cbb33836040518363ffffffff1660e01b815260040161031f92919061102a565b6020604051808303816000875af115801561033e573d6000803e3d6000fd5b505050506040513d601f19601f82011682018060405250810190610362919061107f565b50505050565b7f000000000000000000000000000000000000000000000000000000000000000073ffffffffffffffffffffffffffffffffffffffff16632e1a7d4d826040518263ffffffff1660e01b81526004016103c191906110ac565b600060405180830381600087803b1580156103db57600080fd5b505af11580156103ef573d6000803e3d6000fd5b5050505050565b7f000000000000000000000000000000000000000000000000000000000000000073ffffffffffffffffffffffffffffffffffffffff166323b872dd3330846040518463ffffffff1660e01b8152600401610453939291906110c7565b6020604051808303816000875af1158015610472573d6000803e3d6000fd5b505050506040513d601f19601f82011682018060405250810190610496919061107f565b507f000000000000000000000000000000000000000000000000000000000000000073ffffffffffffffffffffffffffffffffffffffff1663b6b55f25826040518263ffffffff1660e01b81526004016104f091906110ac565b600060405180830381600087803b15801561050a57600080fd5b505af115801561051e573d6000803e3d6000fd5b5050505050565b7f000000000000000000000000000000000000000000000000000000000000000073ffffffffffffffffffffffffffffffffffffffff1663e2bbb1586000806040518363ffffffff1660e01b8152600401610581929190611143565b600060405180830381600087803b15801561059b57600080fd5b505af11580156105af573d6000803e3d6000fd5b50505050565b7f000000000000000000000000000000000000000000000000000000000000000081565b7f000000000000000000000000000000000000000000000000000000000000000081565b7f000000000000000000000000000000000000000000000000000000000000000081565b7f000000000000000000000000000000000000000000000000000000000000000073ffffffffffffffffffffffffffffffffffffffff1663095ea7b37f00000000000000000000000000000000000000000000000000000000000000006001546040518363ffffffff1660e01b815260040161069e92919061102a565b6020604051808303816000875af11580156106bd573d6000803e3d6000fd5b505050506040513d601f19601f820116820180604052508101906106e1919061107f565b507f000000000000000000000000000000000000000000000000000000000000000073ffffffffffffffffffffffffffffffffffffffff1663095ea7b37f00000000000000000000000000000000000000000000000000000000000000006001546040518363ffffffff1660e01b815260040161075f92919061102a565b6020604051808303816000875af115801561077e573d6000803e3d6000fd5b505050506040513d601f19601f820116820180604052508101906107a2919061107f565b507f000000000000000000000000000000000000000000000000000000000000000073ffffffffffffffffffffffffffffffffffffffff1663095ea7b37f00000000000000000000000000000000000000000000000000000000000000006001546040518363ffffffff1660e01b815260040161082092919061102a565b6020604051808303816000875af115801561083f573d6000803e3d6000fd5b505050506040513d601f19601f82011682018060405250810190610863919061107f565b507f000000000000000000000000000000000000000000000000000000000000000073ffffffffffffffffffffffffffffffffffffffff1663095ea7b37f00000000000000000000000000000000000000000000000000000000000000006001546040518363ffffffff1660e01b81526004016108e192919061102a565b6020604051808303816000875af1158015610900573d6000803e3d6000fd5b505050506040513d601f19601f82011682018060405250810190610924919061107f565b507f000000000000000000000000000000000000000000000000000000000000000073ffffffffffffffffffffffffffffffffffffffff1663095ea7b37f00000000000000000000000000000000000000000000000000000000000000006001546040518363ffffffff1660e01b81526004016109a292919061102a565b6020604051808303816000875af11580156109c1573d6000803e3d6000fd5b505050506040513d601f19601f820116820180604052508101906109e5919061107f565b50565b7f000000000000000000000000000000000000000000000000000000000000000081565b7f000000000000000000000000000000000000000000000000000000000000000073ffffffffffffffffffffffffffffffffffffffff1663441a3e706000836040518363ffffffff1660e01b8152600401610a6892919061116c565b600060405180830381600087803b158015610a8257600080fd5b505af1158015610a96573d6000803e3d6000fd5b5050505060007f000000000000000000000000000000000000000000000000000000000000000073ffffffffffffffffffffffffffffffffffffffff166370a08231306040518263ffffffff1660e01b8152600401610af59190610f88565b602060405180830381865afa158015610b12573d6000803e3d6000fd5b505050506040513d601f19601f82011682018060405250810190610b369190610fee565b90507f000000000000000000000000000000000000000000000000000000000000000073ffffffffffffffffffffffffffffffffffffffff1663c4de93a5600283306040518463ffffffff1660e01b8152600401610b96939291906111de565b600060405180830381600087803b158015610bb057600080fd5b505af1158015610bc4573d6000803e3d6000fd5b505050505050565b7f000000000000000000000000000000000000000000000000000000000000000081565b7f000000000000000000000000000000000000000000000000000000000000000073ffffffffffffffffffffffffffffffffffffffff166323b872dd3330846040518463ffffffff1660e01b8152600401610c4d939291906110c7565b6020604051808303816000875af1158015610c6c573d6000803e3d6000fd5b505050506040513d601f19601f82011682018060405250810190610c90919061107f565b507f000000000000000000000000000000000000000000000000000000000000000073ffffffffffffffffffffffffffffffffffffffff166387b21efc600283306040518463ffffffff1660e01b8152600401610cef93929190611246565b600060405180830381600087803b158015610d0957600080fd5b505af1158015610d1d573d6000803e3d6000fd5b5050505060007f000000000000000000000000000000000000000000000000000000000000000073ffffffffffffffffffffffffffffffffffffffff166370a08231306040518263ffffffff1660e01b8152600401610d7c9190610f88565b602060405180830381865afa158015610d99573d6000803e3d6000fd5b505050506040513d601f19601f82011682018060405250810190610dbd9190610fee565b90507f000000000000000000000000000000000000000000000000000000000000000073ffffffffffffffffffffffffffffffffffffffff1663e2bbb1586000836040518363ffffffff1660e01b8152600401610e1b92919061116c565b600060405180830381600087803b158015610e3557600080fd5b505af1158015610e49573d6000803e3d6000fd5b505050505050565b60008054906101000a900460ff1681565b7f000000000000000000000000000000000000000000000000000000000000000081565b600080fd5b600073ffffffffffffffffffffffffffffffffffffffff82169050919050565b6000610eb682610e8b565b9050919050565b610ec681610eab565b8114610ed157600080fd5b50565b600081359050610ee381610ebd565b92915050565b600060208284031215610eff57610efe610e86565b5b6000610f0d84828501610ed4565b91505092915050565b6000819050919050565b610f2981610f16565b8114610f3457600080fd5b50565b600081359050610f4681610f20565b92915050565b600060208284031215610f6257610f61610e86565b5b6000610f7084828501610f37565b91505092915050565b610f8281610eab565b82525050565b6000602082019050610f9d6000830184610f79565b92915050565b60008115159050919050565b610fb881610fa3565b82525050565b6000602082019050610fd36000830184610faf565b92915050565b600081519050610fe881610f20565b92915050565b60006020828403121561100457611003610e86565b5b600061101284828501610fd9565b91505092915050565b61102481610f16565b82525050565b600060408201905061103f6000830185610f79565b61104c602083018461101b565b9392505050565b61105c81610fa3565b811461106757600080fd5b50565b60008151905061107981611053565b92915050565b60006020828403121561109557611094610e86565b5b60006110a38482850161106a565b91505092915050565b60006020820190506110c1600083018461101b565b92915050565b60006060820190506110dc6000830186610f79565b6110e96020830185610f79565b6110f6604083018461101b565b949350505050565b6000819050919050565b6000819050919050565b600061112d611128611123846110fe565b611108565b610f16565b9050919050565b61113d81611112565b82525050565b60006040820190506111586000830185611134565b6111656020830184611134565b9392505050565b60006040820190506111816000830185611134565b61118e602083018461101b565b9392505050565b6000819050919050565b600061ffff82169050919050565b60006111c86111c36111be84611195565b611108565b61119f565b9050919050565b6111d8816111ad565b82525050565b60006060820190506111f360008301866111cf565b611200602083018561101b565b61120d6040830184610f79565b949350505050565b600061123061122b61122684611195565b611108565b610f16565b9050919050565b61124081611215565b82525050565b600060608201905061125b6000830186611237565b611268602083018561101b565b6112756040830184610f79565b94935050505056fea26469706673582212209a0550c17a925a7ac6c9710a4fe2213e2fe7f4b745c16681fead0877487b5e9264736f6c63430008110033",
  "linkReferences": {},
  "deployedLinkReferences": {}
}