{
  "_format": "hh-sol-artifact-1",
  "contractName": "Staking",
  "sourceName": "contracts/Staking.sol",
  "abi": [
    {
      "inputs": [],
      "stateMutability": "nonpayable",
      "type": "constructor"
    },
    {
      "inputs": [],
      "name": "MultiChainRouter",
      "outputs": [
        {
          "internalType": "address",
          "name": "",
          "type": "address"
        }
      ],
      "stateMutability": "view",
      "type": "function"
    },
    {
      "inputs": [],
      "name": "PancakeRouter",
      "outputs": [
        {
          "internalType": "address",
          "name": "",
          "type": "address"
        }
      ],
      "stateMutability": "view",
      "type": "function"
    },
    {
      "inputs": [],
      "name": "STG",
      "outputs": [
        {
          "internalType": "address",
          "name": "",
          "type": "address"
        }
      ],
      "stateMutability": "view",
      "type": "function"
    },
    {
      "inputs": [],
      "name": "SUSDT",
      "outputs": [
        {
          "internalType": "address",
          "name": "",
          "type": "address"
        }
      ],
      "stateMutability": "view",
      "type": "function"
    },
    {
      "inputs": [],
      "name": "USDC",
      "outputs": [
        {
          "internalType": "address",
          "name": "",
          "type": "address"
        }
      ],
      "stateMutability": "view",
      "type": "function"
    },
    {
      "inputs": [],
      "name": "USDT",
      "outputs": [
        {
          "internalType": "address",
          "name": "",
          "type": "address"
        }
      ],
      "stateMutability": "view",
      "type": "function"
    },
    {
      "inputs": [],
      "name": "addressesSet",
      "outputs": [
        {
          "internalType": "bool",
          "name": "",
          "type": "bool"
        }
      ],
      "stateMutability": "view",
      "type": "function"
    },
    {
      "inputs": [],
      "name": "approvals",
      "outputs": [],
      "stateMutability": "nonpayable",
      "type": "function"
    },
    {
      "inputs": [
        {
          "internalType": "uint256",
          "name": "_amount",
          "type": "uint256"
        },
        {
          "internalType": "address[]",
          "name": "path",
          "type": "address[]"
        }
      ],
      "name": "compoundToStargate",
      "outputs": [],
      "stateMutability": "nonpayable",
      "type": "function"
    },
    {
      "inputs": [
        {
          "internalType": "uint256",
          "name": "_amount",
          "type": "uint256"
        }
      ],
      "name": "depositToMultiChain",
      "outputs": [],
      "stateMutability": "nonpayable",
      "type": "function"
    },
    {
      "inputs": [
        {
          "internalType": "uint256",
          "name": "_amount",
          "type": "uint256"
        }
      ],
      "name": "depositToStargate",
      "outputs": [],
      "stateMutability": "nonpayable",
      "type": "function"
    },
    {
      "inputs": [
        {
          "internalType": "address",
          "name": "tokenAddr",
          "type": "address"
        }
      ],
      "name": "getAllTokens",
      "outputs": [],
      "stateMutability": "nonpayable",
      "type": "function"
    },
    {
      "inputs": [],
      "name": "stargateLPStaking",
      "outputs": [
        {
          "internalType": "address",
          "name": "",
          "type": "address"
        }
      ],
      "stateMutability": "view",
      "type": "function"
    },
    {
      "inputs": [],
      "name": "stargateRouter",
      "outputs": [
        {
          "internalType": "address",
          "name": "",
          "type": "address"
        }
      ],
      "stateMutability": "view",
      "type": "function"
    },
    {
      "inputs": [
        {
          "internalType": "uint256",
          "name": "_amount",
          "type": "uint256"
        }
      ],
      "name": "withrawFromMultiChain",
      "outputs": [],
      "stateMutability": "nonpayable",
      "type": "function"
    },
    {
      "inputs": [
        {
          "internalType": "uint256",
          "name": "_amount",
          "type": "uint256"
        }
      ],
      "name": "withrawFromStargate",
      "outputs": [],
      "stateMutability": "nonpayable",
      "type": "function"
    }
  ],
  "bytecode": "0x61018060405260008060006101000a81548160ff021916908315150217905550734a364f8c717caad9a442737eb7b8a55cc6cf18d873ffffffffffffffffffffffffffffffffffffffff1660809073ffffffffffffffffffffffffffffffffffffffff16815250738965349fb649a33a30cbfda057d8ec2c48abe2a273ffffffffffffffffffffffffffffffffffffffff1660a09073ffffffffffffffffffffffffffffffffffffffff16815250733052a0f6ab15b4ae1df39962d5ddefaca86dab4773ffffffffffffffffffffffffffffffffffffffff1660c09073ffffffffffffffffffffffffffffffffffffffff1681525073b0d502e938ed5f4df2e681fe6e419ff29631d62b73ffffffffffffffffffffffffffffffffffffffff1660e09073ffffffffffffffffffffffffffffffffffffffff168152507355d398326f99059ff775485246999027b319795573ffffffffffffffffffffffffffffffffffffffff166101009073ffffffffffffffffffffffffffffffffffffffff16815250738ac76a51cc950d9822d68b83fe1ad97b32cd580d73ffffffffffffffffffffffffffffffffffffffff166101209073ffffffffffffffffffffffffffffffffffffffff16815250739aa83081aa06af7208dcc7a4cb72c94d057d2cda73ffffffffffffffffffffffffffffffffffffffff166101409073ffffffffffffffffffffffffffffffffffffffff168152507310ed43c718714eb63d5aa57b78b54704e256024e73ffffffffffffffffffffffffffffffffffffffff166101609073ffffffffffffffffffffffffffffffffffffffff168152507fffffffffffffffffffffffffffffffffffffffffffffffffffffffffffffffff60015534801561028b57600080fd5b5060805160a05160c05160e05161010051610120516101405161016051611b096103b56000396000818161061d01528181610cab01528181610d6c0152610ffb0152600081816105d30152818161077a01528181610a2c01528181610aed01528181610ea7015261115201526000818161045c015281816105af0152610bae0152600081816108aa0152818161096b01528181610d3001528181610df3015261101f01526000818161058b0152610c6f015260008181610816015281816109a701528181610b2901528181610e17015281816111ee01526112910152600081816103ce015281816104fd01528181610bea0152610fd70152600081816105f7015281816106cd015281816108e601528181610a6801528181610f4301526110c00152611b096000f3fe608060405234801561001057600080fd5b50600436106101005760003560e01c8063b05dba9611610097578063eda0228f11610066578063eda0228f1461024f578063eeb2e34d1461026d578063fc08a27814610289578063ff494947146102a757610100565b8063b05dba96146101ed578063c54e44eb146101f7578063e51e114514610215578063e9c2aee91461023157610100565b806389a30271116100d357806389a3027114610177578063a1f4272b14610195578063a9e56f3c146101b3578063ac576809146101d157610100565b8063178b6de6146101055780631899fa571461012157806319f727bf1461013d5780634c16e97314610159575b600080fd5b61011f600480360381019061011a9190611325565b6102c5565b005b61013b60048036038101906101369190611388565b6103cc565b005b61015760048036038101906101529190611388565b61045a565b005b610161610589565b60405161016e91906113c4565b60405180910390f35b61017f6105ad565b60405161018c91906113c4565b60405180910390f35b61019d6105d1565b6040516101aa91906113c4565b60405180910390f35b6101bb6105f5565b6040516101c891906113c4565b60405180910390f35b6101eb60048036038101906101e69190611538565b610619565b005b6101f56108a8565b005b6101ff610df1565b60405161020c91906113c4565b60405180910390f35b61022f600480360381019061022a9190611388565b610e15565b005b610239610fd5565b60405161024691906113c4565b60405180910390f35b610257610ff9565b60405161026491906113c4565b60405180910390f35b61028760048036038101906102829190611388565b61101d565b005b61029161127e565b60405161029e91906115af565b60405180910390f35b6102af61128f565b6040516102bc91906113c4565b60405180910390f35b600081905060008173ffffffffffffffffffffffffffffffffffffffff166370a08231306040518263ffffffff1660e01b815260040161030591906113c4565b602060405180830381865afa158015610322573d6000803e3d6000fd5b505050506040513d601f19601f8201168201806040525081019061034691906115df565b90508173ffffffffffffffffffffffffffffffffffffffff1663a9059cbb33836040518363ffffffff1660e01b815260040161038392919061161b565b6020604051808303816000875af11580156103a2573d6000803e3d6000fd5b505050506040513d601f19601f820116820180604052508101906103c69190611670565b50505050565b7f000000000000000000000000000000000000000000000000000000000000000073ffffffffffffffffffffffffffffffffffffffff16632e1a7d4d826040518263ffffffff1660e01b8152600401610425919061169d565b600060405180830381600087803b15801561043f57600080fd5b505af1158015610453573d6000803e3d6000fd5b5050505050565b7f000000000000000000000000000000000000000000000000000000000000000073ffffffffffffffffffffffffffffffffffffffff166323b872dd3330846040518463ffffffff1660e01b81526004016104b7939291906116b8565b6020604051808303816000875af11580156104d6573d6000803e3d6000fd5b505050506040513d601f19601f820116820180604052508101906104fa9190611670565b507f000000000000000000000000000000000000000000000000000000000000000073ffffffffffffffffffffffffffffffffffffffff1663b6b55f25826040518263ffffffff1660e01b8152600401610554919061169d565b600060405180830381600087803b15801561056e57600080fd5b505af1158015610582573d6000803e3d6000fd5b5050505050565b7f000000000000000000000000000000000000000000000000000000000000000081565b7f000000000000000000000000000000000000000000000000000000000000000081565b7f000000000000000000000000000000000000000000000000000000000000000081565b7f000000000000000000000000000000000000000000000000000000000000000081565b60007f000000000000000000000000000000000000000000000000000000000000000073ffffffffffffffffffffffffffffffffffffffff166338ed17398460008530639f9fd95a6040518663ffffffff1660e01b815260040161068195949392919061182d565b6000604051808303816000875af11580156106a0573d6000803e3d6000fd5b505050506040513d6000823e3d601f19601f820116820180604052508101906106c9919061194a565b90507f000000000000000000000000000000000000000000000000000000000000000073ffffffffffffffffffffffffffffffffffffffff166387b21efc60028360018151811061071d5761071c611993565b5b6020026020010151306040518463ffffffff1660e01b8152600401610744939291906119fd565b600060405180830381600087803b15801561075e57600080fd5b505af1158015610772573d6000803e3d6000fd5b5050505060007f000000000000000000000000000000000000000000000000000000000000000073ffffffffffffffffffffffffffffffffffffffff166370a08231306040518263ffffffff1660e01b81526004016107d191906113c4565b602060405180830381865afa1580156107ee573d6000803e3d6000fd5b505050506040513d601f19601f8201168201806040525081019061081291906115df565b90507f000000000000000000000000000000000000000000000000000000000000000073ffffffffffffffffffffffffffffffffffffffff1663e2bbb1586000836040518363ffffffff1660e01b8152600401610870929190611a34565b600060405180830381600087803b15801561088a57600080fd5b505af115801561089e573d6000803e3d6000fd5b5050505050505050565b7f000000000000000000000000000000000000000000000000000000000000000073ffffffffffffffffffffffffffffffffffffffff1663095ea7b37f00000000000000000000000000000000000000000000000000000000000000006001546040518363ffffffff1660e01b815260040161092592919061161b565b6020604051808303816000875af1158015610944573d6000803e3d6000fd5b505050506040513d601f19601f820116820180604052508101906109689190611670565b507f000000000000000000000000000000000000000000000000000000000000000073ffffffffffffffffffffffffffffffffffffffff1663095ea7b37f00000000000000000000000000000000000000000000000000000000000000006001546040518363ffffffff1660e01b81526004016109e692919061161b565b6020604051808303816000875af1158015610a05573d6000803e3d6000fd5b505050506040513d601f19601f82011682018060405250810190610a299190611670565b507f000000000000000000000000000000000000000000000000000000000000000073ffffffffffffffffffffffffffffffffffffffff1663095ea7b37f00000000000000000000000000000000000000000000000000000000000000006001546040518363ffffffff1660e01b8152600401610aa792919061161b565b6020604051808303816000875af1158015610ac6573d6000803e3d6000fd5b505050506040513d601f19601f82011682018060405250810190610aea9190611670565b507f000000000000000000000000000000000000000000000000000000000000000073ffffffffffffffffffffffffffffffffffffffff1663095ea7b37f00000000000000000000000000000000000000000000000000000000000000006001546040518363ffffffff1660e01b8152600401610b6892919061161b565b6020604051808303816000875af1158015610b87573d6000803e3d6000fd5b505050506040513d601f19601f82011682018060405250810190610bab9190611670565b507f000000000000000000000000000000000000000000000000000000000000000073ffffffffffffffffffffffffffffffffffffffff1663095ea7b37f00000000000000000000000000000000000000000000000000000000000000006001546040518363ffffffff1660e01b8152600401610c2992919061161b565b6020604051808303816000875af1158015610c48573d6000803e3d6000fd5b505050506040513d601f19601f82011682018060405250810190610c6c9190611670565b507f000000000000000000000000000000000000000000000000000000000000000073ffffffffffffffffffffffffffffffffffffffff1663095ea7b37f00000000000000000000000000000000000000000000000000000000000000006001546040518363ffffffff1660e01b8152600401610cea92919061161b565b6020604051808303816000875af1158015610d09573d6000803e3d6000fd5b505050506040513d601f19601f82011682018060405250810190610d2d9190611670565b507f000000000000000000000000000000000000000000000000000000000000000073ffffffffffffffffffffffffffffffffffffffff1663095ea7b37f00000000000000000000000000000000000000000000000000000000000000006001546040518363ffffffff1660e01b8152600401610dab92919061161b565b6020604051808303816000875af1158015610dca573d6000803e3d6000fd5b505050506040513d601f19601f82011682018060405250810190610dee9190611670565b50565b7f000000000000000000000000000000000000000000000000000000000000000081565b7f000000000000000000000000000000000000000000000000000000000000000073ffffffffffffffffffffffffffffffffffffffff1663441a3e706000836040518363ffffffff1660e01b8152600401610e71929190611a34565b600060405180830381600087803b158015610e8b57600080fd5b505af1158015610e9f573d6000803e3d6000fd5b5050505060007f000000000000000000000000000000000000000000000000000000000000000073ffffffffffffffffffffffffffffffffffffffff166370a08231306040518263ffffffff1660e01b8152600401610efe91906113c4565b602060405180830381865afa158015610f1b573d6000803e3d6000fd5b505050506040513d601f19601f82011682018060405250810190610f3f91906115df565b90507f000000000000000000000000000000000000000000000000000000000000000073ffffffffffffffffffffffffffffffffffffffff1663c4de93a5600283306040518463ffffffff1660e01b8152600401610f9f93929190611a9c565b600060405180830381600087803b158015610fb957600080fd5b505af1158015610fcd573d6000803e3d6000fd5b505050505050565b7f000000000000000000000000000000000000000000000000000000000000000081565b7f000000000000000000000000000000000000000000000000000000000000000081565b7f000000000000000000000000000000000000000000000000000000000000000073ffffffffffffffffffffffffffffffffffffffff166323b872dd3330846040518463ffffffff1660e01b815260040161107a939291906116b8565b6020604051808303816000875af1158015611099573d6000803e3d6000fd5b505050506040513d601f19601f820116820180604052508101906110bd9190611670565b507f000000000000000000000000000000000000000000000000000000000000000073ffffffffffffffffffffffffffffffffffffffff166387b21efc600283306040518463ffffffff1660e01b815260040161111c939291906119fd565b600060405180830381600087803b15801561113657600080fd5b505af115801561114a573d6000803e3d6000fd5b5050505060007f000000000000000000000000000000000000000000000000000000000000000073ffffffffffffffffffffffffffffffffffffffff166370a08231306040518263ffffffff1660e01b81526004016111a991906113c4565b602060405180830381865afa1580156111c6573d6000803e3d6000fd5b505050506040513d601f19601f820116820180604052508101906111ea91906115df565b90507f000000000000000000000000000000000000000000000000000000000000000073ffffffffffffffffffffffffffffffffffffffff1663e2bbb1586000836040518363ffffffff1660e01b8152600401611248929190611a34565b600060405180830381600087803b15801561126257600080fd5b505af1158015611276573d6000803e3d6000fd5b505050505050565b60008054906101000a900460ff1681565b7f000000000000000000000000000000000000000000000000000000000000000081565b6000604051905090565b600080fd5b600080fd5b600073ffffffffffffffffffffffffffffffffffffffff82169050919050565b60006112f2826112c7565b9050919050565b611302816112e7565b811461130d57600080fd5b50565b60008135905061131f816112f9565b92915050565b60006020828403121561133b5761133a6112bd565b5b600061134984828501611310565b91505092915050565b6000819050919050565b61136581611352565b811461137057600080fd5b50565b6000813590506113828161135c565b92915050565b60006020828403121561139e5761139d6112bd565b5b60006113ac84828501611373565b91505092915050565b6113be816112e7565b82525050565b60006020820190506113d960008301846113b5565b92915050565b600080fd5b6000601f19601f8301169050919050565b7f4e487b7100000000000000000000000000000000000000000000000000000000600052604160045260246000fd5b61142d826113e4565b810181811067ffffffffffffffff8211171561144c5761144b6113f5565b5b80604052505050565b600061145f6112b3565b905061146b8282611424565b919050565b600067ffffffffffffffff82111561148b5761148a6113f5565b5b602082029050602081019050919050565b600080fd5b60006114b46114af84611470565b611455565b905080838252602082019050602084028301858111156114d7576114d661149c565b5b835b8181101561150057806114ec8882611310565b8452602084019350506020810190506114d9565b5050509392505050565b600082601f83011261151f5761151e6113df565b5b813561152f8482602086016114a1565b91505092915050565b6000806040838503121561154f5761154e6112bd565b5b600061155d85828601611373565b925050602083013567ffffffffffffffff81111561157e5761157d6112c2565b5b61158a8582860161150a565b9150509250929050565b60008115159050919050565b6115a981611594565b82525050565b60006020820190506115c460008301846115a0565b92915050565b6000815190506115d98161135c565b92915050565b6000602082840312156115f5576115f46112bd565b5b6000611603848285016115ca565b91505092915050565b61161581611352565b82525050565b600060408201905061163060008301856113b5565b61163d602083018461160c565b9392505050565b61164d81611594565b811461165857600080fd5b50565b60008151905061166a81611644565b92915050565b600060208284031215611686576116856112bd565b5b60006116948482850161165b565b91505092915050565b60006020820190506116b2600083018461160c565b92915050565b60006060820190506116cd60008301866113b5565b6116da60208301856113b5565b6116e7604083018461160c565b949350505050565b6000819050919050565b6000819050919050565b600061171e611719611714846116ef565b6116f9565b611352565b9050919050565b61172e81611703565b82525050565b600081519050919050565b600082825260208201905092915050565b6000819050602082019050919050565b611769816112e7565b82525050565b600061177b8383611760565b60208301905092915050565b6000602082019050919050565b600061179f82611734565b6117a9818561173f565b93506117b483611750565b8060005b838110156117e55781516117cc888261176f565b97506117d783611787565b9250506001810190506117b8565b5085935050505092915050565b6000819050919050565b600061181761181261180d846117f2565b6116f9565b611352565b9050919050565b611827816117fc565b82525050565b600060a082019050611842600083018861160c565b61184f6020830187611725565b81810360408301526118618186611794565b905061187060608301856113b5565b61187d608083018461181e565b9695505050505050565b600067ffffffffffffffff8211156118a2576118a16113f5565b5b602082029050602081019050919050565b60006118c66118c184611887565b611455565b905080838252602082019050602084028301858111156118e9576118e861149c565b5b835b8181101561191257806118fe88826115ca565b8452602084019350506020810190506118eb565b5050509392505050565b600082601f830112611931576119306113df565b5b81516119418482602086016118b3565b91505092915050565b6000602082840312156119605761195f6112bd565b5b600082015167ffffffffffffffff81111561197e5761197d6112c2565b5b61198a8482850161191c565b91505092915050565b7f4e487b7100000000000000000000000000000000000000000000000000000000600052603260045260246000fd5b6000819050919050565b60006119e76119e26119dd846119c2565b6116f9565b611352565b9050919050565b6119f7816119cc565b82525050565b6000606082019050611a1260008301866119ee565b611a1f602083018561160c565b611a2c60408301846113b5565b949350505050565b6000604082019050611a496000830185611725565b611a56602083018461160c565b9392505050565b600061ffff82169050919050565b6000611a86611a81611a7c846119c2565b6116f9565b611a5d565b9050919050565b611a9681611a6b565b82525050565b6000606082019050611ab16000830186611a8d565b611abe602083018561160c565b611acb60408301846113b5565b94935050505056fea2646970667358221220f3ff2ab8efcc70e39ed0c6365ef4b785df830e2d16e074b9052c921d017c9c6564736f6c63430008110033",
  "linkReferences": {},
  "deployedLinkReferences": {}
}